{
  "_format": "hh-sol-artifact-1",
  "contractName": "MonadMarket",
  "sourceName": "contracts/extra/MonadMarket.sol",
  "abi": [
    {
      "inputs": [
        {
          "internalType": "address",
          "name": "usdm",
          "type": "address"
        }
      ],
      "stateMutability": "nonpayable",
      "type": "constructor"
    },
    {
      "anonymous": false,
      "inputs": [
        {
          "indexed": true,
          "internalType": "address",
          "name": "minter",
          "type": "address"
        },
        {
          "indexed": true,
          "internalType": "uint256",
          "name": "amount",
          "type": "uint256"
        }
      ],
      "name": "Loaned",
      "type": "event"
    },
    {
      "anonymous": false,
      "inputs": [
        {
          "indexed": true,
          "internalType": "address",
          "name": "redeemer",
          "type": "address"
        },
        {
          "indexed": true,
          "internalType": "uint256",
          "name": "amount",
          "type": "uint256"
        }
      ],
      "name": "Redeemed",
      "type": "event"
    },
    {
      "inputs": [],
      "name": "COLLATERALIZATION_RATIO",
      "outputs": [
        {
          "internalType": "uint8",
          "name": "",
          "type": "uint8"
        }
      ],
      "stateMutability": "view",
      "type": "function"
    },
    {
      "inputs": [],
      "name": "FEE",
      "outputs": [
        {
          "internalType": "uint8",
          "name": "",
          "type": "uint8"
        }
      ],
      "stateMutability": "view",
      "type": "function"
    },
    {
      "inputs": [],
      "name": "USDM",
      "outputs": [
        {
          "internalType": "address",
          "name": "",
          "type": "address"
        }
      ],
      "stateMutability": "view",
      "type": "function"
    },
    {
      "inputs": [],
      "name": "loan",
      "outputs": [],
      "stateMutability": "payable",
      "type": "function"
    },
    {
      "inputs": [
        {
          "internalType": "uint256",
          "name": "mintAmount",
          "type": "uint256"
        }
      ],
      "name": "redeem",
      "outputs": [],
      "stateMutability": "nonpayable",
      "type": "function"
    }
  ],
  "bytecode": "0x60a060405234801561001057600080fd5b506040516104b93803806104b983398101604081905261002f91610040565b6001600160a01b0316608052610070565b60006020828403121561005257600080fd5b81516001600160a01b038116811461006957600080fd5b9392505050565b60805161042161009860003960008181608d0152818161014e015261024601526104216000f3fe60806040526004361061004a5760003560e01c80633402ff1d1461004f578063a9da3cf21461007b578063c57981b5146100c7578063d285b7b4146100dc578063db006a75146100e6575b600080fd5b34801561005b57600080fd5b50610064604681565b60405160ff90911681526020015b60405180910390f35b34801561008757600080fd5b506100af7f000000000000000000000000000000000000000000000000000000000000000081565b6040516001600160a01b039091168152602001610072565b3480156100d357600080fd5b50610064600a81565b6100e4610106565b005b3480156100f257600080fd5b506100e461010136600461036a565b6101e3565b600061011434610bb8610399565b905060006064610125604684610399565b61012f91906103b6565b6040516340c10f1960e01b8152336004820152602481018290529091507f00000000000000000000000000000000000000000000000000000000000000006001600160a01b0316906340c10f1990604401600060405180830381600087803b15801561019a57600080fd5b505af11580156101ae573d6000803e3d6000fd5b50506040518392503391507fb507759112b4dffd37a0c264da17df89ab0c4897950ce972ba538c52805abf4290600090a35050565b6000620493e06101f4836064610399565b6101fe91906103b6565b90506000606461020f83600a610399565b61021991906103b6565b9050600061022782846103d8565b604051632770a7eb60e21b8152336004820152602481018690529091507f00000000000000000000000000000000000000000000000000000000000000006001600160a01b031690639dc29fac90604401600060405180830381600087803b15801561029257600080fd5b505af11580156102a6573d6000803e3d6000fd5b50506040516000925033915083908381818185875af1925050503d80600081146102ec576040519150601f19603f3d011682016040523d82523d6000602084013e6102f1565b606091505b50509050806103365760405162461bcd60e51b815260206004820152600d60248201526c455448206e6f742073656e742160981b604482015260640160405180910390fd5b604051859033907f4896181ff8f4543cc00db9fe9b6fb7e6f032b7eb772c72ab1ec1b4d2e03b936990600090a35050505050565b60006020828403121561037c57600080fd5b5035919050565b634e487b7160e01b600052601160045260246000fd5b80820281158282048414176103b0576103b0610383565b92915050565b6000826103d357634e487b7160e01b600052601260045260246000fd5b500490565b818103818111156103b0576103b061038356fea2646970667358221220a7f030b29f6b129bf051e31fa861cb782ac9e51810266ebd2e820803dcea903d64736f6c63430008130033",
  "linkReferences": {},
  "deployedLinkReferences": {}
}